:03000000020BB43C
:0C0BB400787FE4F6D8FD75813D020BFB54
:030E6C00256400FA
:070E35000215000001170186
:100A8500120E4C12000E120E19120CB88E138F1482
:100A95007C037DE812057D7C007D0A12057D745876
:100AA5002DF582740E3CF583E493F50DAE13AF146A
:100AB5007C007D6412057D7C007D0A12057D7458DD
:100AC5002DF582740E3CF583E493547FF50EAE1339
:100AD500AF147C007D0A12057D7C007D0A12057D20
:100AE50074582DF582740E3CF583E493F50FAE131F
:100AF500AF147C007D0A12057D74582DF582740EA5
:100B05003CF583E493F510D2AF908000E517F01221
:100B15000CB88E138F147C037DE812057D7C007D57
:100B25000A12057D74582DF582740E3CF583E49305
:100B3500F50DAE13AF147C007D6412057D7C007D40
:100B45000A12057D74582DF582740E3CF583E493E5
:100B5500547FF50EAE13AF147C007D0A12057D7C23
:100B6500007D0A12057D74582DF582740E3CF583BF
:100B7500E493F50FAE13AF147C007D0A12057D7466
:100B8500582DF582740E3CF583E493F510C3E516F4
:100B950094D0E515940740F5E4F515F5167BFF7A35
:0F0BA5000E796C851325851426120678020B0E27
:03000B00020D0AD9
:100D0A00C0E0C0F0C083C082C0D075D000C000C0AF
:100D1A0001C002C003C004C005C006C0070516E52D
:100D2A001670020515120D4DD007D006D005D00455
:100D3A00D003D002D001D000D0D0D082D083D0F05E
:030D4A00D0E032C4
:03002300020C408C
:100C4000C0E0C0F0C083C082C0D075D000C000C07A
:010C5000079C
:100C5100309831859912E51275F0648475F00A8433
:100C6100E5F0900E5893F509E51275F00A8475F0D8
:100C71000A84E5F093F50AE51275F00A84E5F0932C
:100C8100F50BC298309921C2090511D3E5119403DE
:100C9100748094804010751100AF177801EF0880BF
:080CA1000123D8FDF517C299EB
:0F0CA900D007D000D0D0D082D083D0F0D0E032AE
:040DFB007F057E00F2
:100DFF00EF1FAA0670011E4A600FE4FDEDC3940CAD
:090E0F007480948050EA0D80F318
:010E180022B7
:040E62007F1EDFFE12
:010E66002269
:020D7F00A907C2
:100D8100E4FBEBC39408748094805016C2AFC29404
:100D9100E9139294120DFBD294E9C313F9D2AF0B6C
:090DA10080E07F057E00020DFFD9
:100DAA00E4FBEBC3940874809480501BC2AFC294D6
:100DBA00ECC313FCD294120E62309403430480D223
:090DCA00AF120DFB0B80DBAF043E
:010DD30022FD
:100DD400C200D2947F0C7E00120DFFC2947F507E1D
:100DE40000120DFFD2947F0A7E00120DFFA294928E
:060DF40000120DFBA2003D
:010DFA0022D6
:100CB800120DD47FCC120D7F7F44120D7F7FC87E2A
:100CC80000120DFF120DD47FCC120D7F7FBE120DC6
:100CD8007F120DAA8F1A120DAA8F1BE51B540F75D0
:100CE8001900F518E51A4219E4AC18AD19120131CA
:100CF800E4FBFA79C8784012002612016A8E188F30
:010D080019D1
:010D090022C7
:0A0E5800C0F9A4B0999282F88090CE
:0D0E3C000809FFFFFFFFFFFFFFFF01080097
:100D4D0090E00074FFF0AF08A8077401088002C39B
:100D5D0033D8FC90C000F074092508F8E690E00047
:100D6D00F00508D3E5089407748094804003E4F5FA
:010D7D00086D
:010D7E002252
:0C0E4C0090A000E4F090800074FFF02201
:10000E00438E805389F0758A20758CD1C28DD28C27
:03001E00D2A92242
:100E1900759850438E40538EFE53890F758BE67536
:0C0E29008DFFC2ABD28ED2AC43B81022B9
:020E4900C109DD
:080003002009FDD2098F9922AA
:050E6700AE07020003CC
:10002600EC4D6011E8497017ED33EC3304600DE4D4
:10003600FCFFFEFD22E933E8330470F80201D61214
:1000460001A158046009E4CC248150062850090215
:1000560001E02840030201DDC0E0EB4A7044B980AC
:1000660006D0E0FB0201CCEF4E701CBD8008EBFF12
:10007600EAFEE9FD80EBE98DF0A4FEE5F002010F52
:10008600E9CDF9EAFEEBFFEF89F0A4FCE5F0CE89B5
:10009600F0A42EFFE435F0CD89F0A42DFEE435F072
:1000A6008067EF4E7005BD80D780C3EF8BF0A4ACA0
:1000B600F0EE8BF0A42CFCE435F0F8EF8AF0A42CDB
:1000C600E5F038FCE433CB8DF0A42CFCE5F03BF8EE
:1000D600EE8AF0A42CFCE5F038F8E433CF89F0A4DE
:1000E6002CFCE5F038CF3400CE89F0A42FFFE5F0E4
:1000F6003EFEE433C98DF0A42EFEE5F039CD8AF03C
:10010600A42FFFE5F03EFEE43DFD33D0E0FB5007B3
:100116000BBB000F0201E0EC2CFCEF33FFEE33FECD
:06012600ED33FD0201B8FB
:10012C0075F020800E75F010800575F0087D007E4E
:10013C00007F003392D530D5031205D2EC3340103A
:10014C00EF33FFEE33FEED33FDEC33FCD5F0ED2257
:0E015C00E5F0247EA2D513CC92E7CDCEFF2293
:10016A00EDD2E7CD33EC3392D524814006E4FFFE8D
:10017A00FDFC22FCE4CFCECDCC24E0501174FF80EC
:10018A00EDC3CC13CCCD13CDCE13CECF13CF047089
:07019A00F030D5DE0205D2B2
:10061600E5392425F8E605392278223007027825BF
:10062600E475F0011205E00205252000EB7F2ED2CD
:10063600008018EF540F2490D43440D4FF30040BBC
:10064600EF24BFB41A0050032461FFE53A60021597
:100656003A053DE53D7002053C30070D7822E4750C
:10066600F0011205E0EF02056B020E677403D20774
:100676008003E4C207F5398B228A238924E4F53AFC
:10068600F53CF53DE53A60077F2012065180F57589
:100696003BFFC201C200C202C203C205C206C208B3
:1006A60012061FFF700D3007057F00120662AF3D70
:1006B600AE3C22B4255FC2D5C20412061FFF24D069
:1006C600B40A00501A75F00A783A30D50508B6FF14
:1006D6000106C6A426F620D5047002D20380D924CA
:1006E600CFB41A00EF5004C2E5D20402094FD2017A
:1006F60080C6D20080C0D20280BCD2D580BAD205D4
:1007060080B47F201206512002077401B53A0040DA
:10071600F1120616FF12065102068AD208D2068088
:1007260095120616FB120616FA120616F94A4B70B1
:100736000679467A0A7BFF20022EE53A602A7E0079
:100746008E8275830012053E60060EEE653B70F0E4
:10075600C2D5EBC0E0EAC0E0E9C0E0EE1209AFD0D6
:10076600E0F9D0E0FAD0E0FB120525FF60AAEBC065
:10077600E0EAC0E0E9C0E0120651D0E02401F9D079
:10078600E03400FAD0E0FBE53B0460DCD53BD980E1
:1007960087D20280A212099260F7E53B700104122B
:1007A60001EBA93B600DE53B600914F53B120A39E4
:1007B600EF60F3EA30E702F404C3995077EAF425D0
:1007C6003B0430E701E404F53B800D12099260C159
:1007D600EA053B253B1201EBEA7838F630E701E4FF
:1007E600253B04D53B04200501141209AFE4C0E003
:1007F600120A397838E6601320E70714F61206392C
:10080600802204F6D0E014C0E07F00120639E53BF2
:100816006007120630153B800B300503120630D0F8
:10082600E002068AD0E00480C512099260A0E53B8A
:10083600041201EB7838EAF6E53B20050260010474
:0508460024041209AFBB
:10084B0074FF04C0E0120A39120639E53B20050299
:10085B006003120630D0E0B53BE87F4512064378C3
:10086B0038E67F2B30E7047F2DF404C0E0120651ED
:10087B00D0E075F00A84C0F012063AD0E012063AC6
:10088B0002068A791080027908C206C2088008D253
:10089B00D5790A8004790AC2D5E53B047002F53B91
:1008AB00E4FAFDFEFF120616FC7B0820011312066C
:1008BB0016FD7B1030000A120616FE120616FF7B81
:1008CB0020EC3382D592D55013C3E43000069FFF42
:1008DB00E49EFEE42001039DFDE49CFCE4CBF8C206
:1008EB0001EC700CCFCECDCCE824F8F870F3801768
:1008FB00C3EF33FFEE33FEED33FDEC33FCEB33FB99
:10090B00994002FB0FD8E9EB300105F8D0E0C44861
:10091B00B201C0E00AEC4D4E4F78207B0070C2EA6A
:10092B00B53B0040BCC0E01209B1D0F0D0E02001D3
:10093B0004C4C0E0C4B201C0F012063AD0F0D5F046
:10094B00EB02068A1205F0072753088E5806F84C5F
:10095B0006F44208924F089A44089A49070D430837
:10096B00A05507D146082F45079B470A665006FC42
:10097B002D07002E07232B0704230721200A4F2ABC
:10098B0006BC480000071BE53BB4FF03753B061292
:10099B000616FC120616FD120616FE120616FF7838
:1009AB003102021A790AA2D5200314300509B910B5
:1009BB00020404B9080104A2D52006025001042048
:1009CB0002689202B53A005034C0E07F2030031920
:1009DB007F30A20272067205500F120A08C202C2C1
:1009EB0006C205C2087F30800F300503E9C0E01254
:1009FB000651300503D0E0F9D0E0B53ACC300517FD
:100A0B007F30B9100C1206517F583004077F788065
:100A1B0003B908031206513002057F2D0206517FE0
:100A2B00202008F87F2B2006F322920280CF7F0034
:100A3B00B4070050052431F8E6FF22286E756C6C64
:100A4B002900D2011206163001F8C201783A30D5CE
:100A5B000108F60206BC2D50434958120616240312
:100A6B00B405004001E4900A6193120642743A12F5
:0A0A7B000642D203753A0402088E09
:1001A100E9D2E7C933E833F892D5EDD2E7CD33ECA4
:0701B10033FC5002B2D5221D
:1001B800EC30E7100FBF000C0EBE00080DBD0004A8
:1001C8000BEB6014A2D5EB13FCED92E7FD2274FF54
:1001D800FCFDFEFF22E480F8A2D574FF13FC7D80AD
:0301E800E480EFC1
:1001EB00F920E72824F950037907E4F42402FB18DB
:1001FB00DBFDE624FB5014E9600DE4F618E604F68B
:0F020B00B40A08E4F6D9F57401F60A22C2D52226
:10021A00ED33EC3392D5FA602AB4FF33EDC2E77BB3
:10022A00FF60067A02793FE4227A02794820D504EF
:10023A007A027943224E614E002B494E46002D49DF
:10024A004E4600E47A08F608DAFC7B00740722E8D6
:10025A00C0E0ECC0E0EDC0E0EEC0E0EFC0E0EA755F
:10026A00F010A4CAABF075F04DA42BFBE435F0FCFA
:10027A00EA2410FAEB34C5FBEC34D9FCEDC2E7FFF3
:10028A0075F056A4F42411C5F0F434C58FF0A42AED
:10029A00E5F03BE43CF620E7141204E5D0E0FFD099
:1002AA00E0FED0E0FDD0E0FC1204188014F4041241
:1002BA0004E5D0E0FFD0E0FED0E0FDD0E0FC120083
:1002CA0026D0E0F8E6FAEDD2E7CD33EC332482FB10
:1002DA00E4C3CF33CFCE33CECD33CD33DBF37B077D
:1002EA0075F00A846004F6081B0AE5F0F6088FF038
:1002FA00740AA4FFACF08EF0740AA42CFEACF05081
:10030A00010C8DF0740AA42CFDE435F0F608DBDE4E
:03031A0074072243
:10031D000201D6E86480F8E933E83360110460F037
:10032D00ED33EC337009E8FCE9FDEAFEEBFF220446
:10033D0060DED3EB9FEA9EE99DE8C2E78CF0C2F741
:10034D0095F0400CE8CCF8E9CDF9EACEFAEBCFFB0D
:10035D001201A185D0F05804700320D5B3E80470C4
:10036D00075002B2D50201E092D5EC0460F7E4CC5F
:10037D00C0E0C398F8603B94186008400DD0E0FBD6
:10038D000201B8E4FBFAC9FC8028E830E406E4C9B0
:10039D00FBE4CAFCE830E305E4C9CACBFCE854072A
:1003AD006010F8C3E913F9EA13FAEB13FBEC13FC35
:1003BD00D8F130F52FC3E49CFCEF9BFFEE9AFEEDD8
:1003CD0099FDD0E0FBEF4E4D4C701222DB03020184
:1003DD00DDEC2CFCEF33FFEE33FEED33FDED30E7BE
:1003ED00EB0201B8EF2BFFEE3AFEED39FDD0E0FB4D
:1003FD0050130BBB00030201E0ED13FDEE13FEEFF6
:08040D0013FFEC13FC0201B81F
:100415000201E0EC5D046005E8590470030201D6B1
:100425001201A1580460F6EC4860F2EC7004FDFE80
:10043500FF22C860DB2481C85009C39860025006BA
:100445000201DD9850CAF582E9294B4A7005AB8255
:100455000201CC75F0007C1A7880C3EF9BEE9AED13
:1004650099400DC3EF9BFFEE9AFEED99FDE842F032
:10047500DC23ACF0D0E0FFD0E0FED0E0FDAB822085
:10048500E7101BEB60BAEC2CFCEF33FFEE33FEED0F
:1004950033FD0201B8E803F830E705C0F075F00058
:1004A500EF2FFFEE33FEED33FD40B830E7C280AAF3
:1004B5003F8000004120000042C80000447A00004F
:1004C500461C400047C35000497424004B189680D1
:1004D5004CBEBC205A0E1BCA6753C21C749DC5AEC8
:1004E500FB60065407601C2323120513EB54386088
:1004F500091204FF12050E120026ECF8EDF9EEFACA
:10050500EFCB22EB12050E80F1543803241C900426
:10051500B5FE93FC0EEE93FD0EEE930ECE93FF22E9
:100BC000020A85E493A3F8E493A34003F68001F2BC
:100BD00008DFF48029E493A3F85407240CC8C33336
:100BE000C4540F4420C8834004F456800146F6DF05
:100BF000E4800B0102040810204080900E35E47E52
:100C0000019360BCA3FF543F30E509541FFEE493F9
:100C1000A360010ECF54C025E060A840B8E493A3C0
:100C2000FAE493A3F8E493A3C8C582C8CAC583CAEB
:100C3000F0A3C8C582C8CAC583CADFE9DEE780BEA3
:010E4B0000A6
:10052500BB010689828A83E0225002E722BBFE02D4
:09053500E32289828A83E4932207
:10053E00BB010CE58229F582E5833AF583E0225072
:10054E0006E92582F8E622BBFE06E92582F8E222BC
:0D055E00E58229F582E5833AF583E49322D6
:10056B00BB010689828A83F0225002F722BBFE016F
:02057B00F32269
:10057D00BC000BBE0029EF8DF084FFADF022E4CC62
:10058D00F875F008EF2FFFEE33FEEC33FCEE9DEC2B
:10059D00984005FCEE9DFE0FD5F0E9E4CEFD22ED71
:1005AD00F8F5F0EE8420D21CFEADF075F008EF2FBB
:1005BD00FFED33FD4007985006D5F0F222C398FDAC
:0505CD000FD5F0EA2249
:0E05D200C3E49FFFE49EFEE49DFDE49CFC223A
:1005E000FAE6FB0808E6F925F0F618E6CA3AF6221C
:1005F000D083D082F8E4937012740193700DA3A39A
:1006000093F8740193F5828883E4737402936860AD
:06061000EFA3A3A380DFAD
:00000001FF
