:020000040800F2
:10000000280600209D010008EF1F0008591E000867
:10001000ED1F0008E50A0008E522000800000000C6
:10002000000000000000000000000000F31F0008B6
:10003000B10B000800000000F11F0008F51F0008C8
:10004000B7010008B7010008B7010008B7010008B0
:10005000B7010008B7010008B7010008B7010008A0
:10006000B7010008B7010008B7010008B701000890
:10007000B7010008B7010008B7010008B701000880
:10008000E90A0008B7010008B7010008B701000835
:10009000B7010008B7010008B7010008B701000860
:1000A000B7010008B7010008B7010008B701000850
:1000B000B7010008B7010008B7010008B701000840
:1000C000B7010008B7010008B7010008B701000830
:1000D000B7010008B7010008B7010008B701000820
:1000E000B7010008B7010008B7010008B701000810
:1000F000B7010008B7010008B7010008B701000800
:10010000B7010008B7010008B7010008B7010008EF
:10011000B7010008B7010008B7010008B7010008DF
:10012000F50A0008B7010008B7010008B701000888
:10013000B7010008B7010008B7010008B7010008BF
:10014000B7010008B7010008B7010008B7010008AF
:10015000010B0008B7010008B7010008B70100084B
:10016000B7010008B7010008B7010008B70100088F
:10017000B7010008B7010008B7010008000000003F
:10018000B7010008B7010008DFF80CD000F06CFBE5
:1001900000480047413B00082806002006488047E9
:1001A00006480047FEE7FEE7FEE7FEE7FEE7FEE75C
:1001B000FEE7FEE7FEE7FEE77D2000088901000874
:1001C0002DE9F05F0546002092469B46884606468C
:1001D000814640241BE0284641464746224600F01F
:1001E00045FA53465A46C01A914110D31146184653
:1001F000224600F02CFA2D1A67EB01084F462246E2
:100200000120002100F023FA17EB00094E41201EC7
:10021000A4F10104DFDC484631462A464346BDE8E6
:10022000F09FD2B201E000F8012B491EFBD27047CB
:100230000022F6E710B513460A4604461946FFF7B2
:10024000F0FF204610BD2DE9FE4F804681EA0300F5
:10025000C00F0C46009021F0004123F00045B8EBA0
:100260000200A94105D24046214690461C460B4655
:10027000024623F00040104347D0270DC7F30A0081
:10028000C3F30A510290401A019040286BDAC3F37D
:10029000130040F4801B0098924620B10023D2EB5B
:1002A000030A63EB0B0B01985946C0F1400250461C
:1002B00000F0CDF906460D4650465946019A00F029
:1002C000E5F910EB08006141002487EA115284EA45
:1002D000E7731A4340D0009A62B3019A012A4FEAA9
:1002E000075215DC001B61EB02014FF0004202EAED
:1002F0000752CDE90042001C41F5801132462B46E1
:1003000000F01CFA03B0BDE8F08F40462146F9E743
:10031000001B61EB0201001C41F5801300185B41DA
:100320002018A2F5001747EB030140EAD570B61973
:100330006D4111E06D084FEA360645EAC0754FEA97
:100340000752001B61EB0201001C41F580114908B6
:100350004FEA30000019514132462B4603B0BDE848
:10036000F04F00F0DCB90098012240000023D0EBF0
:10037000020263EBE073009821464FEAE074B8EBA9
:10038000000061EB0401E9E783F000435BE781F0E3
:10039000004158E72DE9FE4F81EA030404F00044D0
:1003A00021F0004100944FF0000B23F0004350EA8D
:1003B00001045ED052EA03045BD0C3F30A54C1F3D4
:1003C0000A552C44A4F2F3340194A0FB0254C1F367
:1003D000130141F48011C3F3130343F4801301FBB1
:1003E000024400FB034E840A970A44EA815447EA18
:1003F0008357A4FB076802958D0A05FB07854FEA22
:10040000932C04FB0C542705029D4FEA065847EA3B
:100410001637B5EB08056EEB070C870E920E47EA10
:10042000811742EA8312A7FB0201B6EB0B0164EBD2
:1004300000042B0D43EA0C335E1844EB1C50DA46E3
:100440005146E7FB0201C5F313044FEA0B3343EABD
:1004500014534FEA0432019C43EA0603A4F10C044E
:100460000294009CCDE900B400F068F903B0BDE847
:10047000F08F00200146F9E72DE9F04D81EA0304F1
:1004800004F0004B21F0004514464FF0000A23F021
:10049000004150EA050220D054EA01021DD0C5F304
:1004A0000A570246C5F31303C1F31300C1F30A56FA
:1004B00040F4801543F48013A7EB0608101BD646C2
:1004C00008F2FD3873EB050002D308F1010801E0E2
:1004D00092185B41B8F1000F03DA00200146BDE835
:1004E000F08D00204FF48011064684460EE0171B65
:1004F00073EB050705D3121B63EB050306434CEAB8
:10050000010C49084FEA300092185B4150EA01079C
:10051000EDD152EA030012D082EA040083EA050119
:10052000084305D0101BAB4106D20122002306E090
:1005300000224FF0004302E06FF0010253101AEB6B
:1005400006004CEB085110EB0A0041EB0B01BDE833
:10055000F04D00F0E4B80EB5C10F80EAE070084439
:10056000CA07002140F233438DE80E000A460B46CD
:1005700000F0E4F803B000BD0EB540F23341029143
:100580000021CDE900110A460B4600F0D7F803B070
:1005900000BDC1F30A5210B5C1F3130140F2FF339D
:1005A00041F480119A4201DA002010BD40F2334339
:1005B0009A42A2F2334203DC524200F057F810BDD7
:1005C000904010BD00F0004230F000400AD0C10D54
:1005D00001F56071C0F3160042EA0151C2084007FC
:1005E0001143704700200146704701F0004330B4CA
:1005F00021F0004150EA010206D00A0DA2F5607216
:10060000C1F31301002A02DC30BC00207047440F04
:1006100044EAC104C100E01830BC00EBC25000F055
:1006200047B830B50B46014600202022012409E0DE
:1006300021FA02F59D4205D303FA02F5491B04FA9B
:1006400002F52844151EA2F10102F1DC30BD202A7A
:1006500004DB203A00FA02F1002070479140C2F119
:10066000200320FA03F3194390407047202A04DB4B
:10067000203A21FA02F00021704721FA02F3D0401B
:10068000C2F120029140084319467047202A06DB38
:10069000CB17203A41FA02F043EAE07306E041FA50
:1006A00002F3D040C2F1200291400843194670473E
:1006B0000029A8BF7047401C490008BF20F0010076
:1006C000704710B4B0FA80FC00FA0CF050EA010454
:1006D00004BF10BC704749B1CCF1200421FA04F4E6
:1006E00011FA0CF118BF012121430843A3EB0C01BF
:1006F000CB1D4FEA00614FEA102042BF002010BC22
:10070000704700EBC35010440029A4BF10BC7047D1
:10071000401C490008BF20F0010010BC704710B514
:10072000141E73F1000408DA401C41F10001921814
:100730005B411A4301D120F0010010BD2DE9F04DBD
:1007400092469B4611B1B1FA81F202E0B0FA80F212
:1007500020329046FFF77BFF04460F4640EA0A002E
:1007600041EA0B0153465A46084313D0114653EA57
:10077000010019D0C8F140025046FFF777FF054647
:100780000E46504659464246FFF761FF084305D0E2
:10079000012004E020463946BDE8F08D00200543E5
:1007A00046EAE0762C4337430A986305E40AA0EB57
:1007B00008000022FD0A44EA47540A3002D500200E
:1007C0000146E9E7010510196941DDE9084500190D
:1007D0006941BDE8F04DA2E770B521F00043034345
:1007E0000CD0C1F30A550024D5EB040564EB0403D7
:1007F000D617AD1AB34102DB0020014670BD2018A8
:1008000041EB025170BDC1F30A52C1F3130140F232
:10081000FF3341F480119A4202DA0020014670470A
:1008200040F233439A42A2F2334202DC5242FFF7D3
:100830001DBFFFF70CBF000030B5041E71F10004AE
:1008400004DB4FF00044404264EB0101141E73F1DD
:10085000000405DB1C464FF00043524263EB0403E7
:10086000994208BF904230BD064C074D06E0E06853
:1008700040F0010394E8070098471034AC42F6D3E7
:10088000FFF786FCE83C0008083D00082DE9F04D24
:1008900000231A461B1A8A4103DB00200146BDE8EB
:1008A000F08DC1F30A52C1F3130141F480154FF0EA
:1008B000000BD10702D100186D41521E00270446DB
:1008C00040F2FF11384601EB620A3E46804602467E
:1008D00000204FF48011FFF7C9FEC2197141BB1807
:1008E00046EB0100B4EB030C75EB000C04D3E41AE7
:1008F00065EB000517460E46241908F101006D410D
:1009000080463428E3DDF91946EB0600091BA841AF
:1009100003D24FF0FF32134601E0002213461BEBD7
:10092000070046EB0A51BDE8F04DFFF7F8BE10B5E1
:100930000146806B026C12F0500F05D0026CD2069B
:1009400026D500F0DFF910BD016C41F4007101649F
:1009500001688A6812F0405F17D1027EAAB9CA6A9C
:1009600012F4700F02D08A6852050ED44A6822F041
:1009700020024A60016C21F480710164016CC90499
:1009800003D4016C41F00101016400F0B9F910BD1C
:10099000806BC26CBDE810400846104710B5806BF4
:1009A00040210164416C41F00401416400F0AAF966
:1009B00010BD10B5806B00F0A4F910BD464910B50C
:1009C0004A6822F440324A604A6843681A434A60DF
:1009D00001684A6822F480724A6001684A680369C3
:1009E00042EA03224A6001684A6822F040724A6083
:1009F00001684A6883681A434A6001688A6822F479
:100A000000628A6001688A68C3681A438A60816AE2
:100A10006FF07062D14201688A6822F070628A6069
:100A200001688A680CD0836A1A438A6001688A6800
:100A300022F040528A6001688A68C36A1A4301E062
:100A400022F040528A6001688A6822F002028A60BD
:100A500001688A68037E42EA43028A6090F82010A7
:100A6000002901684A680FD042F400624A600168B8
:100A70004A6822F460424A6001684A68174C436A37
:100A800004EB43331A4301E022F400624A60016838
:100A9000CA6A22F47002CA620168CA6A838B104C67
:100AA00004EB03531A43CA6201688A6822F4007295
:100AB0008A6001688A6890F8303042EA43228A608E
:100AC00001688A6822F480628A6001688A684069E5
:100AD00042EA8020886010BD0023014000E0FFFF53
:100AE0000000F0FFFEE70000014800F003BA00003C
:100AF000C4010020014800F0FDB90000840000207E
:100B0000014800F0F7B900006401002001681823D3
:100B1000CAB2103AB2FBF3F2054B6FF30901032A94
:100B20009B5CC36500D9091D8165084670470000BC
:100B3000323C000810B5014600208B698A6A4FF0EC
:100B4000C07453B1B3F5005F15D072B1012A0CD057
:100B5000022A0AD0032A09D104E01AB1012A06D0D8
:100B6000022A03D1C96AC90100D5012010BDC96A92
:100B7000A142FAD010BD002AF7D0012AF2D0022AF1
:100B8000F3D0032AF3D010BD30B50468256825F4EE
:100B900080252560046863608368402B036803D068
:100BA00099600068C26030BD9A600068C16030BD65
:100BB0007047704778B50024009490F83C20012AD3
:100BC00019D0012280F83C200A6807230568092A09
:100BD00013D9EE680A3A02EB420293409E43EE605C
:100BE0000B788A680A3B03EB43039A400368DD688D
:100BF0002A43DA6010E0022078BD2E6902EB42023F
:100C000093409E432E610B788A6803EB43039A401E
:100C100003681D692A431A614A681F23072A13D2F1
:100C200005686E6B521E02EB820293409E436E6318
:100C30000B790A885B1E92B203EB83039A40036828
:100C40005D6B2A435A6327E005680D2A12D22E6B8A
:100C5000D21F02EB820293409E432E630B790A88D7
:100C6000DB1F92B203EB83039A4003681D6B2A4398
:100C70001A6311E0EE6A0D3A02EB820293409E4342
:100C8000EE620B790A880D3B92B203EB83039A4024
:100C90000368DD6A2A43DA62164B0568144A9D42EE
:100CA00006D10D68122D03D1556845F480055560B5
:100CB00005689D4218D10B68102B01D0112B13D160
:100CC000536843F400035360096810290CD10A49A2
:100CD0000A4A0968B1FBF2F101EB8101490000E029
:100CE000491E00910029FBD180F83C40002078BDCE
:100CF00000230140002001401800002040420F0066
:100D000070477047704770B504004FF0000503D07E
:100D1000206C002610B107E0012070BD204600F0D5
:100D20001DF8666484F83C60206CC00610D4206C0A
:100D300020F4885040F0020020642046FFF73EFE79
:100D40006664206C20F0020040F00100206400E0A6
:100D5000012584F83C60284670BD000038B5054682
:100D600000681449884223D1134900200A6842F4DC
:100D700080720A600968124C01F4807100910F4979
:100D8000C4E900100915A060C4E9030149006161CC
:100D90008900A1614911E1614FF44031C4E90810B3
:100DA000204600F077F908B1FFF703FFAC63A563B5
:100DB00038BD000000200140443802401064024069
:100DC00084000020F8B50E4600210446009190F8FA
:100DD0003C00012807D0012084F83C00206883688B
:100DE000DB0702D011E00220F8BD836843F0010365
:100DF00083603748374B0068B0FBF3F000EB4000EE
:100E000000E0401E00900028FBD120688368DB07CB
:100E10005CD0236C40F20165AB4343F480732364E0
:100E20004068400505D5206C20F4005040F4805007
:100E30002064206CC00404D5606C20F0060060645F
:100E400000E0616484F83C10A16B2448224DC86323
:100E5000A16B23480864A16B2248C86421686FF025
:100E6000220008602068416841F08061416020688C
:100E7000816841F4807181602168134632464C31AB
:100E8000A06B00F071F968681749C006206806D0A9
:100E900088421BD1816811F0405F13D016E0884270
:100EA000F8D0124A904203D1D1F80423D206F1D0EF
:100EB0000F4A90420AD1D1F8041301F01F01102902
:100EC000E8D303E0816841F0804181600020F8BDF3
:100ED0001800002040420F00002301402F090008A5
:100EE000B30900089D0900080020014000210140CD
:100EF000002201402DE9F84304464FF00009CDF8E7
:100F0000009063484FF41651A56D0068B0FBF1F7EF
:100F10002E6894F85C10082000FA01F131420FD0DD
:100F200021680A6852070BD50A6822F004020A6099
:100F300094F85C108840A860606D40F00100606526
:100F400094F85C104FF0010808FA01F0304208D024
:100F500021684969090604D5A860606D40F0020067
:100F6000606594F85C1004208840304208D0216805
:100F70000968890704D5A860606D40F004006065C9
:100F800094F85C1010208840304218D0216809681D
:100F9000090714D5A86020680168490304D50068D2
:100FA000000308D5A16C07E00168C90503D40168F6
:100FB00021F008010160216C09B12046884794F8AE
:100FC0005C1020208840304231D021680968C90671
:100FD0002DD5A86094F8350005282068016806D052
:100FE000490347D5006800031DD4616C1CE021F063
:100FF000160101602068416921F080014161206C87
:1010000008B9A06C20B12068016821F008010160D6
:1010100094F85C103F208840A86084F8349084F8ED
:101020003580216D1FE0E16B09B120468847606D76
:1010300000282BD0606DC00714D0052084F835003F
:101040002068016821F0010101600098401C0090B7
:10105000B84203D820680068C007F6D184F83490FD
:1010600084F83580E16C002910D001B02046BDE83D
:10107000F04308470168C905D5D4016821F0100183
:10108000016084F8349084F83580CCE7BDE8F883BB
:10109000180000202DE9F041044600F07FF90646D3
:1010A0005CB1002584F83450022084F835002068B3
:1010B000016821F0010101600DE00120BDE8F0812F
:1010C00000F06CF9801B052805D9202060650320FD
:1010D00084F83500F2E720680068C007F0D1226884
:1010E000116820480140D4E901031843D4E90336CC
:1010F0003343184363691843A3691843E3691843EA
:10110000236A18430843616A042903D1D4E90B1305
:1011100019430843106020684069666A20F007019F
:1011200030460E43012704280CD1A06A0643E06A2A
:1011300040B12046FFF7FEFC20B14020606584F8F6
:101140003570BAE7206846612046FFF7DFFC94F867
:101150005C203F2191408160656584F835700020F6
:10116000ACE700003F8010F02DE9F0410446866DA9
:1011700090F83400002501280DD0012084F83400B7
:1011800094F835700020012F07D084F83400022530
:101190002846BDE8F0810220FBE7022784F835707D
:1011A00060652046FFF7F0FC94F85C103F20884013
:1011B000B0602068016841F016010160206C20B128
:1011C0002068016841F0080101602068016841F071
:1011D00001010160DCE700002DE9F84F00224FF02B
:1011E000010803254FF00F0E0B6808FA02F42340A4
:1011F000A3426ED14E68012E05D0022E03D0112ECF
:1012000001D0122E12D186684FEA420C05FA0CF773
:10121000BE43CF6807FA0CF7374387604668A6439A
:101220000C79C4F30014944034434460C6685700FA
:1012300005FA07FC8C6826EA0C06BC403443C460FF
:101240004C68022C01D0122C13D1D40800EB84047A
:10125000A346D4F8209054074FEAD46A0EFA0AF64F
:1012600029EA06090E6906FA0AF646EA0906CBF8E3
:10127000206006680C7926EA0C0604F00304BC40E2
:10128000344304604C68E40065D5364C266846F467
:1012900080462660246822F0030604F4804400940B
:1012A000314C3444A446D4F808489607370F0EFA58
:1012B00007F6B4432D4EB04201D1002624E02C4E57
:1012C000B04201D101261FE02A4EB04202D10226CF
:1012D0001AE040E0284EB04201D1032614E0274E28
:1012E000B04201D104260FE0254EB04201D10526BF
:1012F0000AE0244EB04201D1062605E0224EB0425B
:1013000001D1072600E00826BE402643CCF8086835
:101310001E4E34684F689C43FF0300D51C43346065
:101320001A4C241D26684F689E43BF0300D51E43F8
:101330002660164E083634684F689C43FF0200D57D
:101340001C433460114E0C3634684F689C43BF0216
:1013500000D51C433460521C102AFFF445AFBDE891
:10136000F88F000044380240003001400000024085
:101370000004024000080240000C0240001002403D
:101380000014024000180240001C0240003C0140D2
:101390000AB1816170470904FBE7000001488068D9
:1013A000704700000C000020024881680278114458
:1013B000816070470C0000200B4810B5016841F4B3
:1013C00000710160016841F480610160016841F4CD
:1013D00080710160032000F06FF8002000F006F833
:1013E00000F024F8002010BD003C024070B50D4D07
:1013F00004464FF47A712878B1FBF0F00A49096885
:10140000B1FBF0F000F00EFB48B9102C07D200221F
:101410002146501E00F030F800206C6070BD0120A5
:1014200070BD00000C000020180000200A4808B51C
:10143000016841F480410160006800F48040009040
:101440000548001F016841F080510160006800F00C
:101450008050009008BD000044380240002809DB9D
:1014600000F01F02012191404009800000F1E020BE
:10147000C0F8001170470000F0B40E4B1B680C461A
:10148000C3F30223C3F10705042D00D90425191D58
:10149000072901D2002300E0DB1E012606FA05F130
:1014A000491E214099409E40761E16403143F0BCB3
:1014B00000F042BF0CED00E0064900F007020868AA
:1014C0004FF6FF03184040EA0220034A1043086029
:1014D000704700000CED00E00000FA052DE9F04730
:1014E0000E46050065D0DFF81481D8F80000F7B289
:1014F00000F00F00B04207D288F80070D8F8000062
:1015000000F00F00B04254D128683D4C810712D53D
:10151000400703D5206840F4E05020602878000799
:1015200003D5206840F4604020602068A96820F05E
:10153000F000084320602878C0072DD03049686843
:101540000839012812D0022813D0032811D00968C5
:10155000890700292DDA216821F003010143216068
:10156000FFF71CFF814641F2883A0EE009688903C3
:10157000EFE709688901ECE7FFF710FFA0EB09012D
:10158000514502D90320BDE8F0872068696800F062
:101590000C00B0EB810FEFD1D8F80010404601F0FD
:1015A0000F01B14207D90770006800F00F00B04288
:1015B00001D00120E7E72878400705D52068E968D1
:1015C00020F4E050084320602878000706D5206802
:1015D000296920F4604040EAC100206000F038F83A
:1015E0002168084AC1F30311515CC84006490860EC
:1015F00006480068FFF7FAFE0020C4E7003C0240FE
:10160000083802403A3C0008180000201000002072
:101610000448054900680968044AC1F38221515C05
:10162000C840704718000020083802404A3C0008B3
:101630000448054900680968044AC1F34231515C15
:10164000C840704718000020083802404A3C000893
:10165000154810B5006810F00C02144813D0411062
:10166000042A0FD0082A0ED10F4C241F22682368A9
:1016700002F03F025B0207D52068C0F38810A0FB90
:10168000010106E0084610BD2168C1F38811A1FBE5
:1016900000010023FEF794FD2168C1F30141491CBC
:1016A0004900B0FBF1F010BD083802400024F400FE
:1016B0002DE9F84F04006ED02078DFF83C93C00786
:1016C000A9F104054AD009F104000168C1F38101C0
:1016D000012908D00068C0F3810002280AD1D9F896
:1016E0000000400206D52868800337D560680028CE
:1016F000E1D033E06068B0F5803F10D0B0F5A02FA6
:10170000286810D020F480302860286820F48020D9
:1017100028606068A8B1FFF741FE06460DE0286822
:1017200040F48030F4E740F480202860F7E700BF01
:10173000FFF734FE801B642873D828688003F7D530
:101740000CE0FFF72BFE064605E000BFFFF726FE84
:10175000801B6428F0D828688003F7D42078DFF84D
:101760009C8280074FF0000A3ED5A348001D016807
:1017700011F00C0F08D00068C0F3810002280BD1D3
:10178000D9F80000400207D42868800716D5E06821
:10179000012800D112E02BE1E068B8B10120C8F8BF
:1017A0000000FFF7FBFD064605E000BFFFF7F6FD72
:1017B000801B0228C0D828688007F7D528682169CF
:1017C00020F0F80040EAC10028600DE0C8F800A051
:1017D000FFF7E4FD064604E0FFF7E0FD801B02286A
:1017E0001FD828688007F7D42078000722D5824EBA
:1017F00083486169703671B101210160FFF7CEFD48
:10180000074604E0FFF7CAFDC01B022809D830686C
:101810008007F7D50EE0C0F800A0FFF7BFFD074630
:1018200005E082E0FFF7BAFDC01B02287DD83068D2
:101830008007F7D42078400768D5DFF8BCB10027CF
:101840000BF13C0BDBF80000C0000BD4DBF8001000
:1018500041F08051CBF80010DBF80000012700F0C8
:1018600080500090674E3068C00510D4306840F456
:1018700080703060FFF792FD009005E0FFF78EFD6D
:101880000099401A022850D83068C005F6D55A4E43
:10189000A0686C3601280FD00528306810D020F0E1
:1018A00001003060306820F004003060A068B8B1FA
:1018B000FFF774FD00900FE0306840F00100F4E79E
:1018C00040F004003060F7E7FFF768FD0099411A27
:1018D00041F28830814266D830688007F4D50EE046
:1018E000FFF75CFD009007E0FFF758FD0099411AF3
:1018F00041F28830814256D830688007F4D42FB145
:10190000DBF8001021F08051CBF80010A069C8B3BB
:101910003949091D0968C1F3810102294AD0022809
:10192000504607D0C8F8600000E03CE0FFF736FD05
:1019300004463BE04746C8F86000FFF72FFD064627
:1019400005E000BFFFF72AFD801B02282BD828687E
:101950008001F7D4D4E907010843A16A2A4A49085B
:1019600002EB0141626A41EA8211084394F82C10AB
:1019700040EA0161C9F8001001203866FFF70EFD4A
:10198000044606E036E000BFFFF708FD001B022812
:1019900009D828688001F7D52CE000BFFFF7FEFCCE
:1019A000001B022802D90320BDE8F88F28688001B7
:1019B000F4D41FE00128F7D0D9F80000E26900F460
:1019C0008001914214D1226A00F03F0191420FD16F
:1019D00047F6C071626A0140914209D1A26A00F4DF
:1019E0004031914204D1E16A00F07060884201D038
:1019F0000120D9E70020D7E7043802400000474221
:101A0000800E4742007000400000FFFF4FF0E021D1
:101A10000428086903D020F004000861704740F0F2
:101A20000400FAE710B5401EB0F1807F01D3012019
:101A300010BD4FF0E02460610F21601700F07CFCC6
:101A40000020A06107202061002010BD704770B504
:101A5000040004D094F83900002510B106E00120FC
:101A600070BD84F83850204600F022F8242084F815
:101A700039002068C16821F40051C160204600F09F
:101A80006BFB2068016921F4904101612068416984
:101A900021F02A0141612068C16841F40051C16010
:101AA000E563202084F8390084F83A00002070BDF6
:101AB0002DE9F04786B0064614216846FEF7B8FBCC
:101AC000DFF80C810221D6F800C00025414803222E
:101AD0000724414B8F064FF480694FF4807AC44548
:101AE00036D1DFF8F0C00CF1140CDCF8008048F0BF
:101AF0001008CCF80080DCF800C00CF0100CCDF819
:101B000014C0D0F800C04CF0010CC0F800C0006850
:101B100000F00100059050028DE82300CDE9032478
:101B200069461846FFF758FB2D4C2C482060C4E945
:101B30000175C4E903596561C4E9065AB812C4E9DC
:101B4000080520463DE07463A66306B0BDE8F08753
:101B5000DFF89080C445F8D1DFF878C00CF1100CA4
:101B6000DCF8008048F40038CCF80080DCF800C0D5
:101B70000CF4003CCDF814C0D0F800C04CF0010CBF
:101B8000C0F800C0006800F0010005900C208DE84E
:101B90002300CDE9032469461846FFF71DFB104CCE
:101BA000114860342060C4E90175C014E560C4E9DF
:101BB00004908000C4E9060A4FF44030C4E90805E7
:101BC0002046FFF767FA0028BDD0FEF7F2FFBAE71C
:101BD000001001403038024000000240886402409A
:101BE000640100200044004088600240F8B50446CB
:101BF00090F83A0020283CD1C1B3BAB394F8380029
:101C0000012836D0012084F83800A162A285002581
:101C1000E563222084F83A00636B1748D863636B4E
:101C200016481864636B1648D864606B13460565E4
:101C30000846666B216802463046091DFFF794FA94
:101C4000206801684168009184F83850C16841F407
:101C50008071C1602068416941F0010141612068E3
:101C6000416941F0400141610020F8BDFFE70120DA
:101C7000FBE70220F9E70000E32000081F2100082D
:101C80009920000870B5054600683149314C8842FA
:101C90000AD1314801F0C8FE20704FF47A73012256
:101CA00021462E4800F07BF82D49286888424DD106
:101CB0002C4801782CA000F017FBA078401CC0B283
:101CC000A070032842D900259FED280A2849657095
:101CD000607831F81020401C00EE902AC0B260708D
:101CE000F8EE600A0A2830EE800AF1D3B2EE041A48
:101CF000C0EE010A10EE900AFEF764FC9FED1D1B7A
:101D000053EC112BFEF746FBFEF76FFCFEF75AFC77
:101D10009FED1A1B53EC112BFEF736FB9FED191BA1
:101D200053EC112BFEF7A8FB9FED181B53EC112B66
:101D3000FEF789FAFEF759FCFEF744FC41EC100B64
:101D400014A053EC102B00F0CFFAA57070BD00006A
:101D500000100140080000200100002024010020A4
:101D60000044004000000020256300000000000047
:101D7000280000206666666666664A3F52B81E8581
:101D8000EB51E83F7B14AE47E17A643F000000006E
:101D900000003940252E32660000000070472DE912
:101DA000F843044690F839001F4616460D46202891
:101DB00050D1B5B1AEB194F8380001284AD0012015
:101DC00084F838004FF00008C4F83C80212084F8E3
:101DD0003900FFF7E3FAA6848146E68484F8388068
:101DE00026E00120BDE8F883E08C401EE084A06876
:101DF0004B46B0F5805F4FF000024FF08001204667
:101E0000009703D000F03CFAE8B90DE000F038FA92
:101E1000C8B928882168C0F308004860206908B163
:101E20006D1C05E0AD1C03E0216815F8010B48604E
:101E3000E08C0028D8D14B46002240212046009754
:101E400000F01EFA08B10320CCE7202084F8390006
:101E50000020C7E70220C5E7FEE700001FB500210C
:101E60001648009101910291134A039102604FF4C8
:101E70008032C0E9012101240161047680F820103C
:101E80000F4AC0E90A21C461C16080F83040446152
:101E9000FEF739FF08B1FEF78CFE1020CDE90004F3
:101EA0000720029069460548FEF784FE002801D00D
:101EB000FEF77FFE1FBD0000002001403C00002017
:101EC0000100000F154808B5016841F48001016068
:101ED000016801F480010091016841F40011016082
:101EE0000068002200F40010009011461020FFF757
:101EF000C3FA1020FFF7B2FA002211463820FFF78C
:101F0000BBFA3820FFF7AAFA002211464420FFF757
:101F1000B3FABDE808404420FFF7A0BA30380240C9
:101F200030B587B014216846FEF782F911480024C5
:101F3000016841F080010160016801F080010591B4
:101F4000016841F00101016000680B4D00F00100E3
:101F50000590224602212846FFF71AFA0220009037
:101F60000120CDE90104694628460394FFF734F9BE
:101F700007B030BD30380240000002400C4810B5B8
:101F80000A4901604FF4E1314160002181600C2277
:101F9000C160C0E904128161C161FFF758FD0028EA
:101FA00003D0BDE81040FEF704BE10BD0010014094
:101FB000E40000200C4810B50A4901604FF4E131FB
:101FC0004160002181600C22C160C0E9041281617E
:101FD000C161FFF73CFD002803D0BDE81040FEF7CB
:101FE000E8BD10BD0044004024010020FEE770471A
:101FF00070477047FFF7D8B930B593B030216846C5
:10200000FEF716F914210CA8FEF712F9194800255D
:10201000016841F080510160006800F0805011902B
:102020001548016841F4804101600068022400F411
:102030008040119001200090000401908001CDE9C2
:10204000064008AA0420A82182E813000B906846E5
:10205000FFF72EFB0CA90F2081E831004FF4A050B0
:102060000F90E002109005210CA8FFF737FA13B08B
:1020700030BD000040380240007000400548016853
:1020800041F47001016003494FF00060803908603D
:102090007047000088ED00E070B5846B20684069EF
:1020A00094F83910C0F3C0100025212904D118B1CB
:1020B000E584204600F046F82068406994F83A101C
:1020C000C0F38010222904D118B1E585204600F024
:1020D0002BF8E06B40F01000E0632046FFF7B6FC01
:1020E00070BD10B50146806B09680968C90513D435
:1020F0000021C1850168CA6822F48072CA60016843
:102100004A6922F001024A6101684A6922F04002EC
:102110004A61202180F83A10FFF7B4FD10BD10B5D8
:10212000806BFFF73BFE10BD0168CA6822F4907215
:10213000CA6001684A6922F001024A61202180F8E0
:102140003A1070470168CA6822F0C002CA602021B4
:1021500080F83910704700002DE9F041044600680E
:102160000169E26821F44051114301612169A068CD
:10217000E26908436169114308432168CA6849F26A
:102180000C639A430243CA6020684169A26921F442
:10219000407111434161E069192764253226B0F589
:1021A000004F354A354920684FF0000806D0884274
:1021B00001D0904236D1FFF73BFA35E0884201D09A
:1021C000904202D1FFF734FA01E0FFF721FA61688B
:1021D0004A18A0FB070148EB0803FDF7F1FF014691
:1021E000B0FBF5F00201B1FBF5F06FF018035843B6
:1021F00001EB800006EBC000B0FBF5F000F0F8004A
:1022000002EB4002B1FBF5F0584301EB800006EB16
:10221000C000B0FBF5F000F00700216810448860B2
:10222000BDE8F081FFF7F4F961688B0F8A00A0FB2D
:102230000701FDF7C5FF0146B0FBF5F06FF018028E
:10224000504301EB800006EB0010B0FBF5F000F00E
:10225000F002B1FBF5F002EB0012B1FBF5F06FF00C
:102260001803584301EB800006EB0010B0FBF5F0BB
:1022700000F00F00D1E70000001401400010014001
:102280002DE9F041984617460E460446069D1DE08E
:10229000681C1BD02DB1FFF781F8A0EB0800A84205
:1022A00014D92068C16821F4D071C16020684169E7
:1022B00021F001014161202084F8390084F83A00BE
:1022C000002084F838000320BDE8F0812068006811
:1022D00036EA000004D00020B842D9D00020F3E74D
:1022E0000120F9E7FEE700000FB4054B10B503A984
:1022F000044A029801F000F810BC5DF814FB0000DD
:102300002D3B00080400002003B401984100009810
:1023100050EAC12018BF04204A0D18BF40F0010048
:1023200040F2FF72B2EB515F08BF40F0020001289B
:1023300008BF052002B070470907090E002804DB1A
:1023400000F1E02080F80014704700F00F0000F169
:10235000E02080F8141D70472DE9F04D2DED040BA1
:102360002DED0E8B96B0DDE92550279CDDF890A071
:1023700025F0004624F00048BAF1000F14BF0121F7
:10238000002101EB4502FC4953184A1093422AD31D
:10239000002814BF0123002303EB44030B44F74937
:1023A0008B4220D358EA00019FEDF59B76D0DFF8F1
:1023B000D8B35D4503D1BAF1000F05D188E0BAF179
:1023C000000F08BF002100D0012101EB450111F5EC
:1023D000001F08D8002814BF0121002101EB44018F
:1023E00011F5001F0BD99DED261B9DED240B16B09A
:1023F000BDEC0E8B04B0BDE8F04D00F069BE0027C7
:10240000002DBCBFE149884521DAE1498845A8BFD4
:1024100002271CDAC3451ADCDE4901EB28511429D6
:1024200008DDC1F1340220FA02F101FA02F282421F
:102430000DD108E058B9C1F1140228FA02F101FAED
:1024400002F2424503D101F00101C1F1020756EA4F
:102450000A0124D1002C22DA002D18BF022F01D04E
:10246000012F0AD0022000F07FFE16B0BDEC0E8BCB
:1024700004B0BDE8F04D00F013BE022000F074FE81
:1024800000F00EFE51EC100B81F0004141EC100BFE
:1024900016B0BDEC0E8B04B0BDE8F08D18E09FEDDA
:1024A000BEAB9FEDBF8B002871D1B848804522D1CB
:1024B00005F1804010F5801008BFBAF1000F07D079
:1024C000B3450ADC002CA8BF9DED260BE0DA0DE039
:1024D000B0EE490AF0EE690ADAE7002C06DA9DED63
:1024E000260B51EC100B81F000416FE0AE487844B0
:1024F00090ED000BCCE7D8454DD1002C48DA2EB139
:1025000086423AD1BAF1000F42D126E0BAF1000F6B
:1025100013D0022000F028FE00F0F6FD8DED020B36
:102520009DED240B8DED000B10EE900A039961F3E5
:102530001E0003909DED020BAAE78DED02AB9DED11
:10254000240B1AEE901A10EE900A8DED000B61F339
:102550001E0003909DED020B9AE78DED028B9DED21
:10256000240B18EE901A10EE900A8DED000B61F31B
:102570001E0003909DED020B8AE709DA9DED240B06
:1025800051EC190B53EC102BFDF776FF1EE020E009
:102590009DED240B7CE786421BDAB4F1804F0DD011
:1025A000A4F10050B0F1FF5013D1002D11DB9DEDCF
:1025B000240B51EC100B01F005FB07E09DED240B03
:1025C00053EC102B51EC100B00F0C2BC41EC100B83
:1025D0005EE79DED240B51EC100B01F09BFABAF174
:1025E000000FCDE90E0142D19FED710B46B3A6F16C
:1025F000E040B0F17F600CD05E4538D1002D00DAAC
:10260000A7B3022F0CBF01204FF0FF30FDF7A3FF4F
:10261000DCE7002D01DD002C0DDA002D01DD002CA2
:102620001FDB002D16DA002C14DB012F08BF9FEDF5
:10263000620B3FF42DAFB0EE4A0AF0EE6A0A27E7CC
:10264000022F18BF002D0CD0012F0AD1002DFFF64C
:102650001FAF06E0002DB8BF002C08DA012F3FF4B1
:1026600017AFB0EE480AF0EE680A11E71BE0012050
:1026700000EBE57050EA070115D0791EB0EE498AEB
:10268000F0EE698A084308BF9FED4D8B4E48002548
:10269000804570DD4D494E48884514DDB0420DDB64
:1026A000002C19DB2FE0012000F05EFD16B0BDEC20
:1026B0000E8B04B0BDE8F04D00F016BDB34502DC52
:1026C000002C09DC1FE0864202DA002C1BDA03E052
:1026D0005E452BDD002C16DD022000F045FD00F0EC
:1026E00013FD8DED020B53EC1A2B51EC180BFDF77B
:1026F00051FECDE900010399019861F31E0003909A
:102700009DED020BC4E6022000F02EFD00F00CFD52
:1027100010EE901A18EE900A8DED020B8DED008BE5
:1027200061F31E0003909DED020BB1E69DED0E0BD3
:1027300053EC192B51EC100BFDF726FE9FED260BE9
:10274000CDE9080153EC102B9DED080B51EC100B5B
:10275000FDF720FE9FED221B53EC112BFDF717FE1A
:102760009DED081B53EC112BFDF714FE9FED1E1B76
:1027700053EC112B3CE08CE0FFFF1F00FFFF0F002C
:10278000000000000000F03F0000F03F0000F07F7C
:102790000000404301FCFFFF000000000000F07F4C
:1027A0000000000000000000EE1700000000000024
:1027B0000000000000000080000000000000F0FFAA
:1027C000000000000000F0BF0000E0410000F04306
:1027D000FFFFEF3F00000000000000000000D03FBE
:1027E000555555555555D53F000000000000E03FB8
:1027F000FDF7CDFD9DED080B41EC1A0B53EC102BB2
:1028000051EC100BFDF7C6FD53EC1A2BFDF7C2FD82
:1028100041EC1A0B9FEDFE0B53EC102B9DED080BBA
:1028200051EC100BFDF7B6FD41EC1B0B9FEDFA0BC5
:1028300051EC1A0B53EC102BFDF7ACFD41EC1A0BCD
:102840009FEDF70B53EC102B9DED080B51EC100B8B
:10285000FDF7A0FD53EC1A2BFDF796FD41EC1A0B8A
:1028600051EC1B0B53EC1A2BFDF7EDFC0690CDE958
:1028700006519DED060B53EC1B2B51EC100BFDF795
:1028800083FD53EC1A2BFDF782FD41EC100B00F099
:10289000A1B90020B6F5801F0EDA9FEDE30B53ECD3
:1028A000102B9DED0E0B51EC100BFDF773FDCDE9D8
:1028B0000E016FF034000E4600EB2650A0F2FF37F9
:1028C000C6F31300DA4940F07F6646F0405688426E
:1028D000D8BF002408DDD7498142C8BF012403DCEA
:1028E0000024A6F580167F1CD348784400EBC40072
:1028F0000F9690ED00CB9DED0E0B53EC1C2B51EC85
:10290000100BFDF741FD9DED0E0B41EC1B0B53EC45
:102910001C2B51EC100BFDF796FC41EC100B51EC0D
:10292000190B53EC102BFDF7A7FD41EC1D0B51ECDF
:102930001B0B53EC1D2BFDF72DFD41EC1A0BBF4873
:102940008DED10AB7844109590ED000B4FF00050DA
:1029500040EA660000EB84408DED080B00F5002096
:1029600009909DED080B53EC1C2B51EC100BFDF75F
:102970000BFD9DED0E1B53EC112BFDF708FD41ECFB
:10298000100B53EC102B9DED100B51EC100BFDF7C1
:1029900001FD9DED080B41EC1C0B53EC102B9DED44
:1029A000100B51EC100BFDF7F5FC53EC1B2BFDF756
:1029B000EEFC53EC1C2BFDF7E7FC53EC1D2BFDF755
:1029C000E9FC41EC1C0B53EC1A2B51EC1A0BFDF7F4
:1029D000E1FC41EC1B0B9A480621B0EE4B0AF0EEED
:1029E0006B0A784400F0E0FAB0EE401AF0EE601A9C
:1029F000B0EE41DAF0EE61DA53EC1B2B51EC1B0B1D
:102A0000FDF7C8FC53EC1D2BFDF7C4FC9DED100B2E
:102A100041EC1B0B53EC1A2B51EC100BFDF713FC84
:102A200053EC1C2BFDF7B6FC53EC1B2BFDF70BFCFA
:102A30009DED100B41EC1B0B53EC102B51EC100BCC
:102A4000FDF7A8FC41EC1D0B9FED7FEB53EC1E2B1B
:102A5000FDF7F9FB53EC1B2BFDF7F5FB0890CDE9D7
:102A600008519DED080B53EC1E2B51EC100BFDF79C
:102A70008BFC53EC1D2BFDF787FC53EC1B2BFDF758
:102A800086FC9DED080B41EC1D0B53EC102B9DEDCE
:102A9000100B51EC100BFDF77DFC41EC1B0B53ECC4
:102AA0001A2B51EC1D0BFDF775FC9DED080B41EC4D
:102AB0001A0B53EC102B51EC1C0BFDF76BFC53EC79
:102AC0001A2BFDF7C0FB41EC1A0B51EC1B0B53EC1E
:102AD0001A2BFDF7B8FB0C90CDE90C519DED0C0BBA
:102AE00053EC1B2B51EC100BFDF74EFC53EC1A2B47
:102AF000FDF74DFC41EC1B0B9FED550B53EC102BE0
:102B00009DED0C0B51EC100BFDF744FC41EC1A0B46
:102B10009FED510B51EC1B0B53EC102BFDF73AFCC6
:102B200041EC1B0B9FED4E0B53EC102B9DED0C0B52
:102B300051EC100BFDF72EFC53EC1B2BFDF783FB28
:102B400041EC100B4848784400EBC40090ED001BAA
:102B500051EC100B53EC112BFDF775FB41EC1B0BEB
:102B60003846FDF7F8FCCDE9080153EC1B2B51EC7E
:102B70001A0BFDF768FB41EC100B3C48784400EB66
:102B8000C40090ED00CB51EC100B53EC1C2BFDF767
:102B90005AFB9DED081B53EC112BFDF754FB0690DF
:102BA000CDE906519DED080B53EC102B9DED060B66
:102BB00051EC100BFDF7E8FB53EC1C2BFDF7E4FB8D
:102BC00053EC1A2BFDF7E0FB53EC1B2BFDF7DFFB5F
:102BD00041EC100B9DED261B53EC102B8DED001BD3
:102BE00000959DED260B51EC100BFDF7D3FB9DEDF1
:102BF000000B41EC1A0B53EC102B9DED260B51EC06
:102C0000100BFDF7C1FB9DED061B53EC112B2FE0C4
:102C1000000000604715F73FFE822B654715F73F20
:102C200044DF5DF80BAE543E00000000000040435E
:102C30008E9803007AB60B006A1300009813000008
:102C4000A212000000000000000000000000084088
:102C5000000000E009C7EE3FFD033ADC09C7EE3F84
:102C6000F5015B14E02F3EBE2E110000E8100000BD
:102C7000FDF790FB53EC1A2BFDF7E5FA9DED060BE3
:102C800041EC1A0B53EC102B9DED000B51EC100B8B
:102C9000FDF780FBCDE90C019DED0C0B51EC1A0BFF
:102CA00053EC102BFDF7CFFACDE902010C46AA49EF
:102CB0008C422FDB611A084318D19DED0C0B53ECAD
:102CC000102B9DED020B51EC100BFDF75DFB41EC61
:102CD0001B0B9FEDA30B51EC1A0B53EC102BFDF7C4
:102CE000B2FA53EC1B2BFDF7A7FD2DD2022000F00A
:102CF0003BFA00F009FA10EE901A18EE900A8DEDEA
:102D0000020B8DED008B61F31E0003909DED020B15
:102D1000FFF7BEBB944A24F00041914214D393497B
:102D2000214408437FF4EFAC9DED0C0B53EC102BCA
:102D30009DED020B51EC100BFDF726FB53EC1A2B0B
:102D4000FDF77AFD7FF6DFAC24F000408849894A20
:102D5000002601EB205182422BDA481C4FF48011EF
:102D600021FA00F02044844AC0F30A517A44A1F2C7
:102D7000FF3192ED000B814A8DED080BCA4020EA2D
:102D80000202C0F3130040F48010C1F1140120FAD4
:102D900001F60992002CB8BF76429DED080B53EC6A
:102DA000102B9DED0C0B51EC100BFDF7EDFACDE95E
:102DB0000C019DED0C0B51EC1A0B53EC102BFDF795
:102DC00042FA9FED6F0B0890CDE9085153EC102BA0
:102DD0009DED080B51EC100BFDF7DCFA41EC1B0BE1
:102DE0009FED690B53EC102B9DED080B51EC100B74
:102DF000FDF7D0FA9DED0C0B41EC1C0B53EC102BA6
:102E00009DED080B51EC100BFDF7BEFA53EC1A2B9D
:102E1000FDF7BDFA9FED5E1B53EC112BFDF7BAFADF
:102E200053EC1C2BFDF70FFA41EC1A0B51EC1B0B6A
:102E300053EC1A2BFDF707FACDE902019DED020BC9
:102E400053EC1B2B51EC100BFDF79EFA53EC1A2B95
:102E5000FDF79DFA9DED020B41EC1A0B53EC102B84
:102E600051EC100BFDF796FACDE908014A489DEDAB
:102E7000080B0521784400F097F89DED081B51ECF4
:102E8000100B53EC112BFDF785FA9DED021B53EC53
:102E9000112BFDF77CFACDE906019DED020B53ECF9
:102EA0001A2B51EC100BFDF775FA53EC1A2BFDF7AA
:102EB000CAF99FED3B0B41EC1A0B53EC102B9DED27
:102EC000060B51EC100BFDF75FFA9DED060B41EC84
:102ED0001B0B53EC102B9DED020B51EC100BFDF76F
:102EE00059FA53EC1B2BFDF7C7FA53EC1A2BFDF7DD
:102EF0004BFA9DED021B53EC112BFDF745FA53ECF9
:102F0000192BFDF744FACDE9020101EB065001153A
:102F10000029C8BF039015DC9DED020B324651EC31
:102F2000100BFDF759FCFFF7EFF9042808BF00F07C
:102F3000FBF832469DED020B51EC100BFDF74CFCFB
:102F4000CDE902019DED020B51EC180B53EC102B57
:102F5000FDF720FAFFF73ABB0000904000000000A8
:102F6000FE822B654715973C00CC904000346F3FA4
:102F700001FCFFFF0000E03F700F0000FFFF0F00AB
:102F800000000000432EE63F396CA80C615C20BEB7
:102F9000EF39FAFE422EE63F400E0000000000002E
:102FA000000000000000004070B504462DED028BCB
:102FB0004D1E00EBC500B0EE408AF0EE608A90ED49
:102FC000000B35F0060017D053EC182B51EC100B0A
:102FD000FDF7E0F941EC100B6D1E04EBC50090ED20
:102FE000001B51EC100B53EC112BFDF72CF941ECAD
:102FF000100B35F00600E7D1022D36D0042D1CD081
:10300000062D1CBFBDEC028B70BD53EC182B51EC90
:10301000100BFDF7BFF994ED0A1B53EC112BFDF7D4
:1030200012F953EC182BFDF7B5F994ED081B53EC8E
:10303000112BFDF708F941EC100B53EC182B51EC58
:10304000100BFDF7A7F994ED061B53EC112BFDF7C0
:10305000FAF853EC182BFDF79DF994ED040B53ECA3
:10306000102BFDF7F0F841EC100B53EC182B51EC42
:10307000100BFDF78FF994ED021B53EC112BFDF7AC
:10308000E2F853EC182BFDF785F994ED001B53EC97
:10309000112BFDF7D8F8BDEC028B41EC100B70BD85
:1030A0009FED070B10B553EC102B9FED070B51EC68
:1030B000100BFDF7E1F941EC100B10BD0000000012
:1030C0000000000000000000000000000000F03FD1
:1030D00010B553EC112B51EC100BFDF7B4F841EC8B
:1030E000100B10BD000000009FED050B10B553EC58
:1030F000102B51EC100BFDF7BFF941EC100B10BD7C
:1031000000000000000000009FED050B10B553EC1F
:10311000102B51EC100BFDF73DF941EC100B10BDDD
:1031200000000000000000709FED050B10B553EC8F
:10313000102B51EC100BFDF72DF941EC100B10BDCD
:10314000000000000000001002E008C8121F08C1C3
:10315000002AFAD170477047002001E001C1121F18
:10316000002AFBD170470000014908607047000049
:10317000240000202DE9FF5F82B00021DDE904304A
:10318000020DDDF840B0034318D044F61050A2F20F
:10319000FF3242431514119801281FD0A5EB0B00F4
:1031A000401C5FEA000A4FF000064E4FDFF83891EE
:1031B000B046504615D5CAF1000413E01198012419
:1031C0004AA3012801D16FEA0B010298119AC0E9C4
:1031D0000031C0E9024206B0BDE8F09FCBF100002B
:1031E000DFE704460021404A491842EB0450CDE98C
:1031F000001012E0E00707D032463B464046494601
:10320000FDF7C8F88046894632463B4610461946C7
:10321000FDF7C0F806460F466410002CEAD1DDE940
:103220000401DDE90023BAF1000F06DAFDF7B2F878
:1032300042464B46FDF7AEF805E0FDF71DF9424664
:103240004B46FDF719F904460E460022284BFDF7C0
:10325000F3FA03D84FF0FF30014607E00022254B78
:1032600020463146FCF7EFFFFDF7CDFA102409E0C8
:10327000002C0ADB0A220023FCF7A2FF039B30325A
:103280001A55641E50EA0102F2D1641C039AC4F17B
:1032900011031444119A012A03D0012208430DD1CD
:1032A0000AE0084304D000204FF0110B119072E7A0
:1032B000A3EB0B056D1E0DE05B4504DD4FF0000236
:1032C00005F1010504E003DA4FF00002A5F1010564
:1032D000002AECD002981199C0E90231C0E90045FA
:1032E00079E70000000014400000F03F30000000CB
:1032F0000000F0430000E03F2DE9FF4F95B09B46F2
:103300008946064600250FE2252877D10024274666
:10331000F84A0121059400E0044316F8013F203BE0
:1033200001FA03F01042F7D130782A2811D06FF05B
:103330002F033078A0F13002092A16D8059A44F0FC
:10334000020402EB820203EB42021044761C059059
:10335000EFE759F8042B0592002A03DA504244F4AF
:103360000054059044F00204761C30782E2816D1C3
:1033700016F8010F44F004042A280DD06FF02F0234
:103380003078A0F13003092B09D807EB870302EB53
:103390004303C718761CF3E759F8047B761C307892
:1033A0006C280FD006DC4C2817D068280DD06A286E
:1033B00014D104E0742810D07A280FD10DE044F421
:1033C00000140AE044F4801401E044F440147278DC
:1033D000824202D104F58014761C761C307866286F
:1033E0000BD013DC582877D009DC002875D045288D
:1033F000F6D04628F4D047281AD19DE118E063287A
:1034000035D0642879D0652812D195E1702873D021
:1034100008DC6728F1D069286FD06E280DD06F289E
:1034200006D1B5E073282CD0752875D0782874D0D3
:103430005A46179990476D1C75E1C4F30250022853
:1034400009D003280DD0D9F8001004280DD00D6044
:1034500009F1040967E1D9F80010EA17C1E900523F
:10346000F6E7D9F800100D80F2E70D70F0E719F8D3
:10347000041B8DF8001000208DF80100EA460120A1
:1034800003E059F804AB4FF0FF3061074FF0000143
:1034900002D40DE008F101018846B9420FDA8045F7
:1034A000F8DB1AF808100029F4D108E008F101014E
:1034B00088468142FADB1AF808100029F6D10598EF
:1034C0005B46A0EB080721463846179A00F094FAAD
:1034D000284400EB080507E04DE029E10DE01AF86B
:1034E000010B5A4617999047B8F10108F7D25B468D
:1034F00021463846179A13E142E00A220092C4F3AB
:1035000002524FF0000A022A08D059F804CB032ACD
:103510004FEAEC710AD00DE029E02AE009F1070139
:1035200021F00702F2E802C1914609E00FFA8CFC93
:103530004FEAEC71042A03D14FFA8CFC4FEAEC718C
:10354000002907DA0A460021DCF1000C61EB0201D8
:103550002D2202E0220504D52B228DF80420012221
:1035600003E0E20701D02022F7E7904659E00A2164
:1035700002E010220DE010214FF0000A00910BE054
:1035800010224FF0000A44F004040827009203E0E0
:1035900008224FF0000A0092C4F30252022A05D01A
:1035A00059F804CB0021032A08D009E009F10701EA
:1035B00021F00702F2E802C1914605E01FFA8CFCF7
:1035C000042A01D10CF0FF0C4FF00008220728D587
:1035D000702806D0009B83F0100353EA0A0305D03D
:1035E0000EE040228DF80420012208E05CEA01028E
:1035F00006D030228DF804208DF805000222904676
:10360000009B83F0080353EA0A030AD15CEA010233
:1036100001D1620705D530228DF804204FF0010852
:103620007F1E582804D034A003900EA802900DE00D
:1036300036A0F9E753466046009AFCF7C1FD844680
:103640000398825C0298401E029002705CEA0100BE
:10365000F0D1029806A9081A00F1200A600702D5E5
:1036600024F4803400E00127574502DDA7EB0A006F
:1036700000E0002000EB0A01009005984144401A48
:103680000590E00306D45B462146179A059800F0A2
:10369000B3F90544002706E001A85A46C05D179912
:1036A00090476D1C7F1C4745F6DBE0030CD55B465D
:1036B0002146179A059800F09FF9054404E0302050
:1036C0005A46179990476D1C0099481E0090002992
:1036D000F5DC08E0029802995A460078491C0291EC
:1036E000179990476D1CBAF10001AAF1010AF1DCAB
:1036F00065E10000092801003031323334353637B6
:10370000383961626364656600000000303132332D
:1037100034353637383941424344454600000000CD
:1037200000F058F90544761C307800287FF4ECADA1
:1037300019B02846BDE8F08F620700D4062709F1CA
:10374000070222F0070CFCE80223E14603F00048E0
:103750005FEA080C02D00FF2702C0DE05FEA045C07
:1037600002D50FF2682C07E05FEAC47C02D00FF2AA
:10377000602C01E0AFF2700C4FF0FF3823F00043F3
:10378000CDF850C065280CD006DC452809D0462865
:103790001DD047283DD13DE0662818D067287ED14E
:1037A00038E00021112F01DB112000E0781CCDE969
:1037B000000106A90EA8FFF7DDFCDDE90F010E9A56
:1037C00003910021009207F1010A04914DE04FF0AE
:1037D00000400097CDE9011006A90EA8FFF7CAFC2A
:1037E000DDE90F0203920E9B11990022DDF80CA077
:1037F0000093049211B9791C00EB010AB7EB0A009F
:1038000004D4C0F1FF3007F1010A0490AAEB0700CD
:10381000019044E0012F00DA01270021112F01DD82
:10382000112000E03846CDE9000106A90EA8FFF7F7
:10383000A1FCDDE90F010E9A039100210491009291
:10384000BA4621070CD40399514500DA8A46BAF1E9
:10385000010F05DD009AAAF10101515C302908D061
:10386000B84202DA10F1040F06DA0121CDE90110A5
:1038700015E0AAF10101E9E7002805DC04990144FB
:103880000491AAEB000102E0411C514500DD8A468B
:103890000499401A401C01904FF00040029020070C
:1038A00004D40198504501DBCDF8048000208DF848
:1038B0004F0002980DF14F07B0F1004F25D02B209B
:1038C0000E9002984FF0020800280CDA4042029055
:1038D0002D200E9007E00A210298FCF7A2FE30315D
:1038E000029007F8011DB8F10001A8F10108F2DC0F
:1038F00002980028EFD1791E0E980870307800F0F9
:10390000200040F0450007F8020D12A8C01B00F18E
:1039100007081498007800B1012000EB0A01019813
:1039200001EBE07105984144401A401E0590E00308
:1039300006D45B462146179A059800F05DF80544C9
:103940001498007818B15A46179990476D1CE003F7
:1039500024D55B462146179A059800F04DF805449A
:103960001CE00498002807DBDDE90301884203DD41
:103970000098405C179901E0179930205A4690470B
:10398000049805F10105401C04900198401E019027
:1039900004D12E205A46179990476D1CBAF10001A8
:1039A000AAF1010ADDDC05E017F8010B5A46179968
:1039B00090476D1CB8F10001A8F10108F4DC5B46EA
:1039C0002146179A0598ABE62D0000002B00000059
:1039D000200000002DE9F041044600251E46174650
:1039E000880404D405E039462020B0476D1C641ECD
:1039F000F9D52846BDE8F0812DE9F04104460025BF
:103A00001E469046C80301D5302700E020278804D1
:103A100004D505E041463846B0476D1C641EF9D513
:103A20002846BDE8F08100002DE9F0411D4C00263C
:103A30002DED048B074630469FED1B9B2670C1B2CF
:103A4000785CA0F14102052A01D8373802E030380D
:103A5000092800D8C5B2C1F10200FCF77CFD41EC99
:103A6000110BB0EE490AF0EE690AFEF775FCB0EEF4
:103A7000408AF0EE608A2846FCF77EFD53EC182B56
:103A8000FCF788FCFCF785FDC5B27019C6B220783A
:103A9000401CC0B220700328D1D3BDEC048B30464B
:103AA000BDE8F0812000002000000000000024405C
:103AB00010B504460420FDF7A9FF0148046010BDBD
:103AC0001C00002070B5054600244FF47A7603E010
:103AD000304600F005F8641CAC42F9D370BD00001C
:103AE00070B54FF0E024002265690949A3690968AF
:103AF0004843A1699942FCD002D2A3EB010302E042
:103B0000A5EB010633441A440B468242F1D370BD43
:103B10001C00002082B0CDE9000121F0004001909E
:103B20009DED000B02B051EC100B704703490A6881
:103B30005206FCD5C2B24A60704700000010014036
:103B4000FDF73AFCFEF758FAFEF7EAF9FEF7BAF984
:103B5000FEF714FAFEF782F9FEF72CFA0322134956
:103B60001348FEF743F811490122491E1148FEF798
:103B70003DF80A2210491148FDF724F9A820FFF763
:103B800097FF0F4C4FF4FA752846FFF79BFF012271
:103B900002212046FDF7FCFB2846FFF793FF002299
:103BA00002212046FDF7F4FBEEE7000001000020B3
:103BB000E400002024010020280000203C00002018
:103BC0000000024000B52DED048B83B041EC190BD1
:103BD000FCF75CFE41EC180B18EE100A18EE901A78
:103BE0008DED008B002818BF0120084320F0004015
:103BF000C0F17F6000F1E040C00F14D019EE101A40
:103C000019EE900A8DED009B002918BF0121084391
:103C100020F00040C0F17F6000F1E040C00F04BF21
:103C20000120FFF7A1FA51EC180B03B0BDEC048B97
:103C300000BD00061016000610160000000000006F
:103C40000000010203040607080900000000010249
:103C50000304000000000000000000000000F03F2E
:103C6000000000000000F83F00000000000000001D
:103C70000000004003B8E23F000000000000000028
:103C800006D0CF43EBFD4C3E033333333333E33FB6
:103C9000FFAB6FDBB66DDB3F4D268F515555D53FE2
:103CA00001411DA96074D13F65DBC9934A86CD3FB0
:103CB000EF4E454A287ECA3F3E5555555555C53F9E
:103CC00093BDBE166CC166BF2CDE25AF6A56113F90
:103CD000F16BD2C541BDBBBED0A4BE726937663E92
:103CE0000000000000000000083D00080000002067
:103CF0002800000048310008303D0008280000205E
:103D0000000600005831000800000000000000001C
:103D10000000000001000000100000000000000092
:103D20000024F4000000000000000000000000007B
:040000050800018965
:00000001FF
